{
  "contractName": "CoinFlip",
  "abi": [
    {
      "inputs": [
        {
          "internalType": "bytes32",
          "name": "commitment",
          "type": "bytes32"
        }
      ],
      "stateMutability": "payable",
      "type": "constructor",
      "payable": true
    },
    {
      "inputs": [],
      "name": "betAmount",
      "outputs": [
        {
          "internalType": "uint256",
          "name": "",
          "type": "uint256"
        }
      ],
      "stateMutability": "view",
      "type": "function",
      "constant": true
    },
    {
      "inputs": [],
      "name": "expiration",
      "outputs": [
        {
          "internalType": "uint256",
          "name": "",
          "type": "uint256"
        }
      ],
      "stateMutability": "view",
      "type": "function",
      "constant": true
    },
    {
      "inputs": [],
      "name": "player1",
      "outputs": [
        {
          "internalType": "address payable",
          "name": "",
          "type": "address"
        }
      ],
      "stateMutability": "view",
      "type": "function",
      "constant": true
    },
    {
      "inputs": [],
      "name": "player1Commitment",
      "outputs": [
        {
          "internalType": "bytes32",
          "name": "",
          "type": "bytes32"
        }
      ],
      "stateMutability": "view",
      "type": "function",
      "constant": true
    },
    {
      "inputs": [],
      "name": "player2",
      "outputs": [
        {
          "internalType": "address payable",
          "name": "",
          "type": "address"
        }
      ],
      "stateMutability": "view",
      "type": "function",
      "constant": true
    },
    {
      "inputs": [],
      "name": "player2Choice",
      "outputs": [
        {
          "internalType": "bool",
          "name": "",
          "type": "bool"
        }
      ],
      "stateMutability": "view",
      "type": "function",
      "constant": true
    },
    {
      "inputs": [],
      "name": "cancel",
      "outputs": [],
      "stateMutability": "nonpayable",
      "type": "function"
    },
    {
      "inputs": [
        {
          "internalType": "bool",
          "name": "choice",
          "type": "bool"
        }
      ],
      "name": "takeBet",
      "outputs": [],
      "stateMutability": "payable",
      "type": "function",
      "payable": true
    },
    {
      "inputs": [
        {
          "internalType": "bool",
          "name": "choice",
          "type": "bool"
        },
        {
          "internalType": "uint256",
          "name": "nonce",
          "type": "uint256"
        }
      ],
      "name": "reveal",
      "outputs": [],
      "stateMutability": "nonpayable",
      "type": "function"
    },
    {
      "inputs": [],
      "name": "claimTimeout",
      "outputs": [],
      "stateMutability": "nonpayable",
      "type": "function"
    }
  ],
  "bytecode": "0x60806040527fffffffffffffffffffffffffffffffffffffffffffffffffffffffffffffffff600455604051610dcc380380610dcc833981810160405281019061004991906100d8565b336000806101000a81548173ffffffffffffffffffffffffffffffffffffffff021916908373ffffffffffffffffffffffffffffffffffffffff160217905550806001819055503460028190555050610105565b600080fd5b6000819050919050565b6100b5816100a2565b81146100c057600080fd5b50565b6000815190506100d2816100ac565b92915050565b6000602082840312156100ee576100ed61009d565b5b60006100fc848285016100c3565b91505092915050565b610cb8806101146000396000f3fe6080604052600436106100915760003560e01c806359a5f12d1161005957806359a5f12d14610148578063d24257c014610173578063d30895e41461019e578063ea8a1af0146101c9578063eb13175d146101e057610091565b80630ce6e680146100965780630e1da6c3146100c157806338a3fde7146100d857806339f3027d146100f45780634665096d1461011d575b600080fd5b3480156100a257600080fd5b506100ab61020b565b6040516100b89190610792565b60405180910390f35b3480156100cd57600080fd5b506100d661021e565b005b6100f260048036038101906100ed91906107de565b610298565b005b34801561010057600080fd5b5061011b60048036038101906101169190610841565b6103aa565b005b34801561012957600080fd5b506101326105ab565b60405161013f9190610890565b60405180910390f35b34801561015457600080fd5b5061015d6105b1565b60405161016a91906108ec565b60405180910390f35b34801561017f57600080fd5b506101886105d7565b6040516101959190610890565b60405180910390f35b3480156101aa57600080fd5b506101b36105dd565b6040516101c091906108ec565b60405180910390f35b3480156101d557600080fd5b506101de610601565b005b3480156101ec57600080fd5b506101f5610771565b6040516102029190610920565b60405180910390f35b600360149054906101000a900460ff1681565b60045442101561022d57600080fd5b600360009054906101000a900473ffffffffffffffffffffffffffffffffffffffff1673ffffffffffffffffffffffffffffffffffffffff166108fc479081150290604051600060405180830381858888f19350505050158015610295573d6000803e3d6000fd5b50565b600073ffffffffffffffffffffffffffffffffffffffff16600360009054906101000a900473ffffffffffffffffffffffffffffffffffffffff1673ffffffffffffffffffffffffffffffffffffffff1614610329576040517f08c379a000000000000000000000000000000000000000000000000000000000815260040161032090610998565b60405180910390fd5b600254341461033757600080fd5b33600360006101000a81548173ffffffffffffffffffffffffffffffffffffffff021916908373ffffffffffffffffffffffffffffffffffffffff16021790555080600360146101000a81548160ff02191690831515021790555062015180426103a191906109e7565b60048190555050565b600073ffffffffffffffffffffffffffffffffffffffff16600360009054906101000a900473ffffffffffffffffffffffffffffffffffffffff1673ffffffffffffffffffffffffffffffffffffffff16141561043c576040517f08c379a000000000000000000000000000000000000000000000000000000000815260040161043390610a89565b60405180910390fd5b6004544210610480576040517f08c379a000000000000000000000000000000000000000000000000000000000815260040161047790610af5565b60405180910390fd5b6001548282604051602001610496929190610b7e565b60405160208183030381529060405280519060200120146104b657600080fd5b811515600360149054906101000a900460ff161515141561053f57600360009054906101000a900473ffffffffffffffffffffffffffffffffffffffff1673ffffffffffffffffffffffffffffffffffffffff166108fc479081150290604051600060405180830381858888f19350505050158015610539573d6000803e3d6000fd5b506105a7565b60008054906101000a900473ffffffffffffffffffffffffffffffffffffffff1673ffffffffffffffffffffffffffffffffffffffff166108fc479081150290604051600060405180830381858888f193505050501580156105a5573d6000803e3d6000fd5b505b5050565b60045481565b600360009054906101000a900473ffffffffffffffffffffffffffffffffffffffff1681565b60025481565b60008054906101000a900473ffffffffffffffffffffffffffffffffffffffff1681565b60008054906101000a900473ffffffffffffffffffffffffffffffffffffffff1673ffffffffffffffffffffffffffffffffffffffff163373ffffffffffffffffffffffffffffffffffffffff161461068f576040517f08c379a000000000000000000000000000000000000000000000000000000000815260040161068690610bf6565b60405180910390fd5b600073ffffffffffffffffffffffffffffffffffffffff16600360009054906101000a900473ffffffffffffffffffffffffffffffffffffffff1673ffffffffffffffffffffffffffffffffffffffff1614610720576040517f08c379a000000000000000000000000000000000000000000000000000000000815260040161071790610c62565b60405180910390fd5b60006002819055503373ffffffffffffffffffffffffffffffffffffffff166108fc479081150290604051600060405180830381858888f1935050505015801561076e573d6000803e3d6000fd5b50565b60015481565b60008115159050919050565b61078c81610777565b82525050565b60006020820190506107a76000830184610783565b92915050565b600080fd5b6107bb81610777565b81146107c657600080fd5b50565b6000813590506107d8816107b2565b92915050565b6000602082840312156107f4576107f36107ad565b5b6000610802848285016107c9565b91505092915050565b6000819050919050565b61081e8161080b565b811461082957600080fd5b50565b60008135905061083b81610815565b92915050565b60008060408385031215610858576108576107ad565b5b6000610866858286016107c9565b92505060206108778582860161082c565b9150509250929050565b61088a8161080b565b82525050565b60006020820190506108a56000830184610881565b92915050565b600073ffffffffffffffffffffffffffffffffffffffff82169050919050565b60006108d6826108ab565b9050919050565b6108e6816108cb565b82525050565b600060208201905061090160008301846108dd565b92915050565b6000819050919050565b61091a81610907565b82525050565b60006020820190506109356000830184610911565b92915050565b600082825260208201905092915050565b7f74616b65426574204572726f723a20503220616c726561647920657869737473600082015250565b600061098260208361093b565b915061098d8261094c565b602082019050919050565b600060208201905081810360008301526109b181610975565b9050919050565b7f4e487b7100000000000000000000000000000000000000000000000000000000600052601160045260246000fd5b60006109f28261080b565b91506109fd8361080b565b9250827fffffffffffffffffffffffffffffffffffffffffffffffffffffffffffffffff03821115610a3257610a316109b8565b5b828201905092915050565b7f72657665616c204572726f723a20503220416464726573730000000000000000600082015250565b6000610a7360188361093b565b9150610a7e82610a3d565b602082019050919050565b60006020820190508181036000830152610aa281610a66565b9050919050565b7f72657665616c204572726f723a2054696d652050726f626c656d000000000000600082015250565b6000610adf601a8361093b565b9150610aea82610aa9565b602082019050919050565b60006020820190508181036000830152610b0e81610ad2565b9050919050565b60008160f81b9050919050565b6000610b2d82610b15565b9050919050565b6000610b3f82610b22565b9050919050565b610b57610b5282610777565b610b34565b82525050565b6000819050919050565b610b78610b738261080b565b610b5d565b82525050565b6000610b8a8285610b46565b600182019150610b9a8284610b67565b6020820191508190509392505050565b7f43616e63656c204572726f723a2053656e646572206973206e6f742050310000600082015250565b6000610be0601e8361093b565b9150610beb82610baa565b602082019050919050565b60006020820190508181036000830152610c0f81610bd3565b9050919050565b7f43616e63656c204572726f723a20503220457869737473000000000000000000600082015250565b6000610c4c60178361093b565b9150610c5782610c16565b602082019050919050565b60006020820190508181036000830152610c7b81610c3f565b905091905056fea26469706673582212200b87e01acdc75410f6a9e5360016dc945fb88b7b179d1c111107bd615bdc612064736f6c63430008090033",
  "immutableReferences": {},
  "source": "pragma solidity ^0.8.9;\n\ncontract CoinFlip {\n\taddress payable public player1;\n\tbytes32 public player1Commitment;\n\t\n\tuint256 public betAmount;\n\t\n\taddress payable public player2;\n\tbool public player2Choice;\n\t\n\tuint256 public expiration = 2**256-1;\n\t\n\tconstructor(bytes32 commitment) payable {\n\t\tplayer1 = payable(msg.sender);\n\t\tplayer1Commitment = commitment;\n\t\tbetAmount = msg.value;\n\t}\n\n\tfunction cancel() public {\n\t\trequire(msg.sender == player1, \"Cancel Error: Sender is not P1\");\n\t\trequire(player2 == address(0x0), \"Cancel Error: P2 Exists\");\n\t\t\n\t\tbetAmount = 0;\n\t\tpayable(msg.sender).transfer(address(this).balance);\n\t}\n\t\n\tfunction takeBet (bool choice) public payable {\n\t\trequire(player2 == address(0x0), \"takeBet Error: P2 already exists\");\n\t\trequire(msg.value == betAmount);\n\t\t\n\t\tplayer2 = payable(msg.sender);\n\t\tplayer2Choice = choice;\n\t\t\n\t\texpiration = block.timestamp + 24 hours;\n\t}\n\t\n\tfunction reveal(bool choice, uint256 nonce) public {\n\t\trequire(player2 != address(0x0), \"reveal Error: P2 Address\");\n\t\trequire(block.timestamp < expiration, \"reveal Error: Time Problem\");\n\t\t\n\t\trequire(keccak256(abi.encodePacked(choice, nonce)) == \tplayer1Commitment);\n\t\t\n\t\tif (player2Choice == choice) {\n\t\t\tpayable(player2).transfer(address(this).balance);\n\t\t} \n\t\telse {\n\t\t\tpayable(player1).transfer(address(this).balance);\n\t\t}\n\t}\n\n\tfunction claimTimeout() public {\n\t\trequire(block.timestamp >= expiration);\n\t\t\n\t\tpayable(player2).transfer(address(this).balance);\n\t}\n}\n\t\n",
  "sourcePath": "/home/mark/crypto/CoinFlip/contracts/CoinFlip.sol",
  "compiler": {
    "name": "solc",
    "version": "0.8.9+commit.e5eed63a.Emscripten.clang"
  },
  "schemaVersion": "3.4.0",
  "updatedAt": "2021-11-18T20:15:57.391Z",
  "networkType": "ethereum",
  "devdoc": {
    "kind": "dev",
    "methods": {},
    "version": 1
  },
  "userdoc": {
    "kind": "user",
    "methods": {},
    "version": 1
  }
}