{
  "contractName": "Auction",
  "abi": [
    {
      "inputs": [],
      "stateMutability": "nonpayable",
      "type": "constructor"
    },
    {
      "inputs": [],
      "name": "contractBalance",
      "outputs": [
        {
          "internalType": "uint256",
          "name": "",
          "type": "uint256"
        }
      ],
      "stateMutability": "view",
      "type": "function",
      "constant": true
    },
    {
      "inputs": [],
      "name": "highestBid",
      "outputs": [
        {
          "internalType": "uint256",
          "name": "",
          "type": "uint256"
        }
      ],
      "stateMutability": "view",
      "type": "function",
      "constant": true
    },
    {
      "inputs": [],
      "name": "highestBidder",
      "outputs": [
        {
          "internalType": "address",
          "name": "",
          "type": "address"
        }
      ],
      "stateMutability": "view",
      "type": "function",
      "constant": true
    },
    {
      "stateMutability": "payable",
      "type": "receive",
      "payable": true
    },
    {
      "inputs": [],
      "name": "bid",
      "outputs": [],
      "stateMutability": "payable",
      "type": "function",
      "payable": true
    },
    {
      "inputs": [],
      "name": "withdraw",
      "outputs": [],
      "stateMutability": "payable",
      "type": "function",
      "payable": true
    }
  ],
  "bytecode": "0x6080604052600060025534801561001557600080fd5b50600060018190555060008060006101000a81548173ffffffffffffffffffffffffffffffffffffffff021916908373ffffffffffffffffffffffffffffffffffffffff1602179055506107998061006e6000396000f3fe60806040526004361061004e5760003560e01c80631998aeef1461005a5780633ccfd60b146100645780638b7afe2e1461006e57806391f9015714610099578063d57bde79146100c457610055565b3661005557005b600080fd5b6100626100ef565b005b61006c61023b565b005b34801561007a57600080fd5b50610083610449565b60405161009091906105c7565b60405180910390f35b3480156100a557600080fd5b506100ae61044f565b6040516100bb919061054c565b60405180910390f35b3480156100d057600080fd5b506100d9610473565b6040516100e691906105c7565b60405180910390f35b600034600360003373ffffffffffffffffffffffffffffffffffffffff1673ffffffffffffffffffffffffffffffffffffffff1681526020019081526020016000205461013c91906105f3565b90506001548111610182576040517f08c379a0000000000000000000000000000000000000000000000000000000008152600401610179906105a7565b60405180910390fd5b80600181905550336000806101000a81548173ffffffffffffffffffffffffffffffffffffffff021916908373ffffffffffffffffffffffffffffffffffffffff16021790555034600360003373ffffffffffffffffffffffffffffffffffffffff1673ffffffffffffffffffffffffffffffffffffffff168152602001908152602001600020600082825461021891906105f3565b92505081905550346002600082825461023191906105f3565b9250508190555050565b61024433610479565b610283576040517f08c379a000000000000000000000000000000000000000000000000000000000815260040161027a90610587565b60405180910390fd5b6000600360003373ffffffffffffffffffffffffffffffffffffffff1673ffffffffffffffffffffffffffffffffffffffff1681526020019081526020016000205411801561031e575060008054906101000a900473ffffffffffffffffffffffffffffffffffffffff1673ffffffffffffffffffffffffffffffffffffffff163373ffffffffffffffffffffffffffffffffffffffff1614155b61035d576040517f08c379a000000000000000000000000000000000000000000000000000000000815260040161035490610567565b60405180910390fd5b6000600360003373ffffffffffffffffffffffffffffffffffffffff1673ffffffffffffffffffffffffffffffffffffffff1681526020019081526020016000205490506000600360003373ffffffffffffffffffffffffffffffffffffffff1673ffffffffffffffffffffffffffffffffffffffff168152602001908152602001600020819055503373ffffffffffffffffffffffffffffffffffffffff166108fc829081150290604051600060405180830381858888f1935050505015801561042c573d6000803e3d6000fd5b50806002600082825461043f9190610649565b9250508190555050565b60025481565b60008054906101000a900473ffffffffffffffffffffffffffffffffffffffff1681565b60015481565b600080600360008473ffffffffffffffffffffffffffffffffffffffff1673ffffffffffffffffffffffffffffffffffffffff1681526020019081526020016000205414159050919050565b6104ce8161067d565b82525050565b60006104e16015836105e2565b91506104ec826106e8565b602082019050919050565b60006105046015836105e2565b915061050f82610711565b602082019050919050565b60006105276014836105e2565b91506105328261073a565b602082019050919050565b610546816106af565b82525050565b600060208201905061056160008301846104c5565b92915050565b60006020820190508181036000830152610580816104d4565b9050919050565b600060208201905081810360008301526105a0816104f7565b9050919050565b600060208201905081810360008301526105c08161051a565b9050919050565b60006020820190506105dc600083018461053d565b92915050565b600082825260208201905092915050565b60006105fe826106af565b9150610609836106af565b9250827fffffffffffffffffffffffffffffffffffffffffffffffffffffffffffffffff0382111561063e5761063d6106b9565b5b828201905092915050565b6000610654826106af565b915061065f836106af565b925082821015610672576106716106b9565b5b828203905092915050565b60006106888261068f565b9050919050565b600073ffffffffffffffffffffffffffffffffffffffff82169050919050565b6000819050919050565b7f4e487b7100000000000000000000000000000000000000000000000000000000600052601160045260246000fd5b7f596f752063616e206e6f74207769746864726177210000000000000000000000600082015250565b7f596f7520617265206e6f74206120626964646572210000000000000000000000600082015250565b7f4e6f74206869676820656e6f756768206269642100000000000000000000000060008201525056fea26469706673582212208168ff0e4ede8201c18d21015955cc12f9b8e74f84cb7348b0ff7dc40b6eabc364736f6c63430008030033",
  "immutableReferences": {},
  "source": "/* SPDX-License-Identifier: GPL-3.0\n */\npragma solidity >=0.5.0;\n\ncontract Auction {\n    address public highestBidder;\n    uint public highestBid;\n    uint public contractBalance = 0;\n    /* Mapping for the amount to return.\n     */\n    mapping(address => uint) private userBalances;\n    \n    /* Initialize highest bid, bidder's address.\n     */\n    constructor() {\n        highestBid = 0;\n        highestBidder = address(0);\n    }\n    \n    modifier onlyBidder() {\n        require(isBidder(msg.sender), \"You are not a bidder!\");\n        _;\n    }\n    \n    function isBidder(address _addr) private view returns(bool) {\n        return (userBalances[_addr] != 0);              \n    }\n    \n    /* Function to process bid.\n     */\n    function bid() public payable {\n        uint totalBid = userBalances[msg.sender] + msg.value;\n        /* Check if the bid is greater than the current highest bid\n         */\n        require(totalBid > highestBid, \"Not high enough bid!\");\n        /* Update status variable and the amount to return,\n         */\n        highestBid = totalBid;\n        highestBidder = msg.sender;\n        userBalances[msg.sender] += msg.value;\n        contractBalance += msg.value;\n    }\n    \n    /* Function to withdraw the amount of bid to return.\n     */\n    function withdraw() public onlyBidder payable {\n        /* Check if the amount to return is greater than zero\n         * and if the sender isn't the highest bidder.\n         */\n        require(userBalances[msg.sender] > 0 && msg.sender != highestBidder, \"You can not withdraw!\");\n        /* Update status variable and return bid.\n         */\n        uint _bid = userBalances[msg.sender];\n        userBalances[msg.sender] = 0;\n        payable(msg.sender).transfer(_bid);\n        contractBalance -= _bid;\n    }\n    \n    receive() external payable {}\n}\n",
  "sourcePath": "/home/mark/auctionDapp/contracts/Auction.sol",
  "compiler": {
    "name": "solc",
    "version": "0.8.3+commit.8d00100c.Emscripten.clang"
  },
  "schemaVersion": "3.4.0",
  "updatedAt": "2021-06-11T14:29:12.759Z",
  "networkType": "ethereum",
  "devdoc": {
    "kind": "dev",
    "methods": {},
    "version": 1
  },
  "userdoc": {
    "kind": "user",
    "methods": {},
    "version": 1
  }
}