{
    "contractName": "CoinFlip",
    "abi": [
        {
            "inputs": [
                {
                    "internalType": "bytes32",
                    "name": "commitment",
                    "type": "bytes32"
                }
            ],
            "stateMutability": "payable",
            "type": "constructor"
        },
        {
            "inputs": [],
            "name": "betAmount",
            "outputs": [
                {
                    "internalType": "uint256",
                    "name": "",
                    "type": "uint256"
                }
            ],
            "stateMutability": "view",
            "type": "function"
        },
        {
            "inputs": [],
            "name": "cancel",
            "outputs": [],
            "stateMutability": "nonpayable",
            "type": "function"
        },
        {
            "inputs": [],
            "name": "claimTimeout",
            "outputs": [],
            "stateMutability": "nonpayable",
            "type": "function"
        },
        {
            "inputs": [],
            "name": "expiration",
            "outputs": [
                {
                    "internalType": "uint256",
                    "name": "",
                    "type": "uint256"
                }
            ],
            "stateMutability": "view",
            "type": "function"
        },
        {
            "inputs": [],
            "name": "player1",
            "outputs": [
                {
                    "internalType": "address payable",
                    "name": "",
                    "type": "address"
                }
            ],
            "stateMutability": "view",
            "type": "function"
        },
        {
            "inputs": [],
            "name": "player1Commitment",
            "outputs": [
                {
                    "internalType": "bytes32",
                    "name": "",
                    "type": "bytes32"
                }
            ],
            "stateMutability": "view",
            "type": "function"
        },
        {
            "inputs": [],
            "name": "player2",
            "outputs": [
                {
                    "internalType": "address payable",
                    "name": "",
                    "type": "address"
                }
            ],
            "stateMutability": "view",
            "type": "function"
        },
        {
            "inputs": [],
            "name": "player2Choice",
            "outputs": [
                {
                    "internalType": "bool",
                    "name": "",
                    "type": "bool"
                }
            ],
            "stateMutability": "view",
            "type": "function"
        },
        {
            "inputs": [
                {
                    "internalType": "bool",
                    "name": "choice",
                    "type": "bool"
                },
                {
                    "internalType": "uint256",
                    "name": "nonce",
                    "type": "uint256"
                }
            ],
            "name": "reveal",
            "outputs": [],
            "stateMutability": "nonpayable",
            "type": "function"
        },
        {
            "inputs": [
                {
                    "internalType": "bool",
                    "name": "choice",
                    "type": "bool"
                }
            ],
            "name": "takeBet",
            "outputs": [],
            "stateMutability": "payable",
            "type": "function"
        }
    ],
    "bytecode": "608060405260001960045560405161068938038061068983398101604081905261002891610046565b600080546001600160a01b031916331790556001553460025561005f565b60006020828403121561005857600080fd5b5051919050565b61061b8061006e6000396000f3fe6080604052600436106100915760003560e01c806359a5f12d1161005957806359a5f12d1461013a578063d24257c014610172578063d30895e414610188578063ea8a1af0146101a8578063eb13175d146101bd57600080fd5b80630ce6e680146100965780630e1da6c3146100cc57806338a3fde7146100e357806339f3027d146100f65780634665096d14610116575b600080fd5b3480156100a257600080fd5b506003546100b790600160a01b900460ff1681565b60405190151581526020015b60405180910390f35b3480156100d857600080fd5b506100e16101d3565b005b6100e16100f1366004610573565b61021e565b34801561010257600080fd5b506100e1610111366004610595565b610303565b34801561012257600080fd5b5061012c60045481565b6040519081526020016100c3565b34801561014657600080fd5b5060035461015a906001600160a01b031681565b6040516001600160a01b0390911681526020016100c3565b34801561017e57600080fd5b5061012c60025481565b34801561019457600080fd5b5060005461015a906001600160a01b031681565b3480156101b457600080fd5b506100e1610478565b3480156101c957600080fd5b5061012c60015481565b6004544210156101e257600080fd5b6003546040516001600160a01b03909116904780156108fc02916000818181858888f1935050505015801561021b573d6000803e3d6000fd5b50565b6003546001600160a01b03161561027c5760405162461bcd60e51b815260206004820181905260248201527f74616b65426574204572726f723a20503220616c72656164792065786973747360448201526064015b60405180910390fd5b60025434146102cd5760405162461bcd60e51b815260206004820181905260248201527f74616b65426574204572726f723a2057726f6e672042657420416d6d6f756e746044820152606401610273565b600380546001600160a81b0319163360ff60a01b191617600160a01b831515021790556102fd42620151806105bf565b60045550565b6003546001600160a01b031661035b5760405162461bcd60e51b815260206004820152601860248201527f72657665616c204572726f723a205032204164647265737300000000000000006044820152606401610273565b60045442106103ac5760405162461bcd60e51b815260206004820152601a60248201527f72657665616c204572726f723a2054696d652050726f626c656d0000000000006044820152606401610273565b60015460405183151560f81b60208201526021810183905260410160405160208183030381529060405280519060200120146103e757600080fd5b60035460ff600160a01b909104161515821515141561043e576003546040516001600160a01b03909116904780156108fc02916000818181858888f19350505050158015610439573d6000803e3d6000fd5b505050565b600080546040516001600160a01b03909116914780156108fc02929091818181858888f19350505050158015610439573d6000803e3d6000fd5b6000546001600160a01b031633146104d25760405162461bcd60e51b815260206004820152601e60248201527f43616e63656c204572726f723a2053656e646572206973206e6f7420503100006044820152606401610273565b6003546001600160a01b03161561052b5760405162461bcd60e51b815260206004820152601760248201527f43616e63656c204572726f723a205032204578697374730000000000000000006044820152606401610273565b6000600281905560405133914780156108fc02929091818181858888f1935050505015801561021b573d6000803e3d6000fd5b8035801515811461056e57600080fd5b919050565b60006020828403121561058557600080fd5b61058e8261055e565b9392505050565b600080604083850312156105a857600080fd5b6105b18361055e565b946020939093013593505050565b600082198211156105e057634e487b7160e01b600052601160045260246000fd5b50019056fea2646970667358221220a483691f4b58d5733589cee569ed0ab21edefb97193c308b6ede66c45c45c3c164736f6c634300080a0033",
    "sourcePath": "/home/mark/crypto/CoinFlip/contracts/CoinFlip.sol",
    "compiler": {
        "name": "solc",
        "version": "0.8.10+commit.fc410830"
    },
    "functionHashes": {
        "betAmount()": "d24257c0",
        "cancel()": "ea8a1af0",
        "claimTimeout()": "0e1da6c3",
        "expiration()": "4665096d",
        "player1()": "d30895e4",
        "player1Commitment()": "eb13175d",
        "player2()": "59a5f12d",
        "player2Choice()": "0ce6e680",
        "reveal(bool,uint256)": "39f3027d",
        "takeBet(bool)": "38a3fde7"
    },
    "gasEstimates": {
        "creation": {
            "codeDepositCost": "312600",
            "executionCost": "infinite",
            "totalCost": "infinite"
        },
        "external": {
            "betAmount()": "2317",
            "cancel()": "infinite",
            "claimTimeout()": "infinite",
            "expiration()": "2384",
            "player1()": "2381",
            "player1Commitment()": "2383",
            "player2()": "2337",
            "player2Choice()": "2317",
            "reveal(bool,uint256)": "infinite",
            "takeBet(bool)": "51021"
        }
    }
}