{
  "contractName": "Cryptopuppy",
  "abi": [
    {
      "inputs": [
        {
          "internalType": "uint256",
          "name": "_mintingCost",
          "type": "uint256"
        }
      ],
      "stateMutability": "nonpayable",
      "type": "constructor"
    },
    {
      "inputs": [],
      "name": "mintingCost",
      "outputs": [
        {
          "internalType": "uint256",
          "name": "",
          "type": "uint256"
        }
      ],
      "stateMutability": "view",
      "type": "function",
      "constant": true
    },
    {
      "inputs": [
        {
          "internalType": "uint256",
          "name": "",
          "type": "uint256"
        }
      ],
      "name": "puppies",
      "outputs": [
        {
          "internalType": "string",
          "name": "name",
          "type": "string"
        },
        {
          "internalType": "address",
          "name": "owner",
          "type": "address"
        },
        {
          "internalType": "bytes32",
          "name": "dna",
          "type": "bytes32"
        },
        {
          "internalType": "uint256",
          "name": "salePrice",
          "type": "uint256"
        }
      ],
      "stateMutability": "view",
      "type": "function",
      "constant": true
    },
    {
      "stateMutability": "payable",
      "type": "receive",
      "payable": true
    },
    {
      "inputs": [
        {
          "internalType": "string",
          "name": "_name",
          "type": "string"
        }
      ],
      "name": "mint",
      "outputs": [],
      "stateMutability": "payable",
      "type": "function",
      "payable": true
    },
    {
      "inputs": [
        {
          "internalType": "uint256",
          "name": "_puppyId",
          "type": "uint256"
        }
      ],
      "name": "ownerOf",
      "outputs": [
        {
          "internalType": "address",
          "name": "",
          "type": "address"
        }
      ],
      "stateMutability": "view",
      "type": "function",
      "constant": true
    },
    {
      "inputs": [
        {
          "internalType": "string",
          "name": "_name",
          "type": "string"
        },
        {
          "internalType": "uint256",
          "name": "_parentId1",
          "type": "uint256"
        },
        {
          "internalType": "uint256",
          "name": "_parentId2",
          "type": "uint256"
        }
      ],
      "name": "breed",
      "outputs": [],
      "stateMutability": "nonpayable",
      "type": "function"
    },
    {
      "inputs": [
        {
          "internalType": "uint256",
          "name": "_puppyId",
          "type": "uint256"
        },
        {
          "internalType": "uint256",
          "name": "_salePrice",
          "type": "uint256"
        }
      ],
      "name": "sell",
      "outputs": [],
      "stateMutability": "nonpayable",
      "type": "function"
    },
    {
      "inputs": [
        {
          "internalType": "uint256",
          "name": "_puppyId",
          "type": "uint256"
        }
      ],
      "name": "buy",
      "outputs": [],
      "stateMutability": "payable",
      "type": "function",
      "payable": true
    }
  ],
  "bytecode": "0x608060405234801561001057600080fd5b50604051620013913803806200139183398181016040528101906100349190610056565b80600081905550506100a0565b60008151905061005081610089565b92915050565b60006020828403121561006857600080fd5b600061007684828501610041565b91505092915050565b6000819050919050565b6100928161007f565b811461009d57600080fd5b50565b6112e180620000b06000396000f3fe6080604052600436106100745760003560e01c8063d79875eb1161004e578063d79875eb14610126578063d85d3d271461014f578063d96a094a1461016b578063ebf98abf146101875761007b565b80636352211e1461008057806399683c22146100bd578063aebf749c146100e65761007b565b3661007b57005b600080fd5b34801561008c57600080fd5b506100a760048036038101906100a29190610be8565b6101b2565b6040516100b49190610e48565b60405180910390f35b3480156100c957600080fd5b506100e460048036038101906100df9190610b81565b610227565b005b3480156100f257600080fd5b5061010d60048036038101906101089190610be8565b6104a2565b60405161011d9493929190610e63565b60405180910390f35b34801561013257600080fd5b5061014d60048036038101906101489190610c11565b61058a565b005b61016960048036038101906101649190610b40565b610654565b005b61018560048036038101906101809190610be8565b6107c4565b005b34801561019357600080fd5b5061019c6109d9565b6040516101a99190610f4f565b60405180910390f35b6000600182815481106101ee577f4e487b7100000000000000000000000000000000000000000000000000000000600052603260045260246000fd5b906000526020600020906004020160010160009054906101000a900473ffffffffffffffffffffffffffffffffffffffff169050919050565b610230826101b2565b73ffffffffffffffffffffffffffffffffffffffff163373ffffffffffffffffffffffffffffffffffffffff1614801561029d575061026e816101b2565b73ffffffffffffffffffffffffffffffffffffffff163373ffffffffffffffffffffffffffffffffffffffff16145b6102dc576040517f08c379a00000000000000000000000000000000000000000000000000000000081526004016102d390610f0f565b60405180910390fd5b6102e46109df565b83816000018190525033816020019073ffffffffffffffffffffffffffffffffffffffff16908173ffffffffffffffffffffffffffffffffffffffff16815250506001838154811061035f577f4e487b7100000000000000000000000000000000000000000000000000000000600052603260045260246000fd5b90600052602060002090600402016002015442600184815481106103ac577f4e487b7100000000000000000000000000000000000000000000000000000000600052603260045260246000fd5b9060005260206000209060040201600201546001805490506040516020016103d79493929190610dc1565b604051602081830303815290604052805190602001208160400181815250506001819080600181540180825580915050600190039060005260206000209060040201600090919091909150600082015181600001908051906020019061043e929190610a20565b5060208201518160010160006101000a81548173ffffffffffffffffffffffffffffffffffffffff021916908373ffffffffffffffffffffffffffffffffffffffff1602179055506040820151816002015560608201518160030155505050505050565b600181815481106104b257600080fd5b90600052602060002090600402016000915090508060000180546104d59061106f565b80601f01602080910402602001604051908101604052809291908181526020018280546105019061106f565b801561054e5780601f106105235761010080835404028352916020019161054e565b820191906000526020600020905b81548152906001019060200180831161053157829003601f168201915b5050505050908060010160009054906101000a900473ffffffffffffffffffffffffffffffffffffffff16908060020154908060030154905084565b610593826101b2565b73ffffffffffffffffffffffffffffffffffffffff163373ffffffffffffffffffffffffffffffffffffffff1614610600576040517f08c379a00000000000000000000000000000000000000000000000000000000081526004016105f790610ecf565b60405180910390fd5b806001838154811061063b577f4e487b7100000000000000000000000000000000000000000000000000000000600052603260045260246000fd5b9060005260206000209060040201600301819055505050565b6000543414610698576040517f08c379a000000000000000000000000000000000000000000000000000000000815260040161068f90610eaf565b60405180910390fd5b6106a06109df565b81816000018190525033816020019073ffffffffffffffffffffffffffffffffffffffff16908173ffffffffffffffffffffffffffffffffffffffff168152505081426001805490506040516020016106fb93929190610e0f565b6040516020818303038152906040528051906020012081604001818152505060018190806001815401808255809150506001900390600052602060002090600402016000909190919091506000820151816000019080519060200190610762929190610a20565b5060208201518160010160006101000a81548173ffffffffffffffffffffffffffffffffffffffff021916908373ffffffffffffffffffffffffffffffffffffffff160217905550604082015181600201556060820151816003015550505050565b600060018281548110610800577f4e487b7100000000000000000000000000000000000000000000000000000000600052603260045260246000fd5b906000526020600020906004020160030154905060008111610857576040517f08c379a000000000000000000000000000000000000000000000000000000000815260040161084e90610eef565b60405180910390fd5b803414610899576040517f08c379a000000000000000000000000000000000000000000000000000000000815260040161089090610f2f565b60405180910390fd5b600182815481106108d3577f4e487b7100000000000000000000000000000000000000000000000000000000600052603260045260246000fd5b906000526020600020906004020160010160009054906101000a900473ffffffffffffffffffffffffffffffffffffffff1673ffffffffffffffffffffffffffffffffffffffff166108fc829081150290604051600060405180830381858888f1935050505015801561094a573d6000803e3d6000fd5b503360018381548110610986577f4e487b7100000000000000000000000000000000000000000000000000000000600052603260045260246000fd5b906000526020600020906004020160010160006101000a81548173ffffffffffffffffffffffffffffffffffffffff021916908373ffffffffffffffffffffffffffffffffffffffff1602179055505050565b60005481565b604051806080016040528060608152602001600073ffffffffffffffffffffffffffffffffffffffff16815260200160008019168152602001600081525090565b828054610a2c9061106f565b90600052602060002090601f016020900481019282610a4e5760008555610a95565b82601f10610a6757805160ff1916838001178555610a95565b82800160010185558215610a95579182015b82811115610a94578251825591602001919060010190610a79565b5b509050610aa29190610aa6565b5090565b5b80821115610abf576000816000905550600101610aa7565b5090565b6000610ad6610ad184610f8f565b610f6a565b905082815260208101848484011115610aee57600080fd5b610af984828561102d565b509392505050565b600082601f830112610b1257600080fd5b8135610b22848260208601610ac3565b91505092915050565b600081359050610b3a81611294565b92915050565b600060208284031215610b5257600080fd5b600082013567ffffffffffffffff811115610b6c57600080fd5b610b7884828501610b01565b91505092915050565b600080600060608486031215610b9657600080fd5b600084013567ffffffffffffffff811115610bb057600080fd5b610bbc86828701610b01565b9350506020610bcd86828701610b2b565b9250506040610bde86828701610b2b565b9150509250925092565b600060208284031215610bfa57600080fd5b6000610c0884828501610b2b565b91505092915050565b60008060408385031215610c2457600080fd5b6000610c3285828601610b2b565b9250506020610c4385828601610b2b565b9150509250929050565b610c5681610fe7565b82525050565b610c6581610ff9565b82525050565b610c7c610c7782610ff9565b6110d2565b82525050565b6000610c8d82610fc0565b610c978185610fcb565b9350610ca781856020860161103c565b610cb081611144565b840191505092915050565b6000610cc682610fc0565b610cd08185610fdc565b9350610ce081856020860161103c565b80840191505092915050565b6000610cf9602383610fcb565b9150610d0482611155565b604082019050919050565b6000610d1c601983610fcb565b9150610d27826111a4565b602082019050919050565b6000610d3f601b83610fcb565b9150610d4a826111cd565b602082019050919050565b6000610d62602583610fcb565b9150610d6d826111f6565b604082019050919050565b6000610d85602183610fcb565b9150610d9082611245565b604082019050919050565b610da481611023565b82525050565b610dbb610db682611023565b6110dc565b82525050565b6000610dcd8287610c6b565b602082019150610ddd8286610daa565b602082019150610ded8285610c6b565b602082019150610dfd8284610daa565b60208201915081905095945050505050565b6000610e1b8286610cbb565b9150610e278285610daa565b602082019150610e378284610daa565b602082019150819050949350505050565b6000602082019050610e5d6000830184610c4d565b92915050565b60006080820190508181036000830152610e7d8187610c82565b9050610e8c6020830186610c4d565b610e996040830185610c5c565b610ea66060830184610d9b565b95945050505050565b60006020820190508181036000830152610ec881610cec565b9050919050565b60006020820190508181036000830152610ee881610d0f565b9050919050565b60006020820190508181036000830152610f0881610d32565b9050919050565b60006020820190508181036000830152610f2881610d55565b9050919050565b60006020820190508181036000830152610f4881610d78565b9050919050565b6000602082019050610f646000830184610d9b565b92915050565b6000610f74610f85565b9050610f8082826110a1565b919050565b6000604051905090565b600067ffffffffffffffff821115610faa57610fa9611115565b5b610fb382611144565b9050602081019050919050565b600081519050919050565b600082825260208201905092915050565b600081905092915050565b6000610ff282611003565b9050919050565b6000819050919050565b600073ffffffffffffffffffffffffffffffffffffffff82169050919050565b6000819050919050565b82818337600083830152505050565b60005b8381101561105a57808201518184015260208101905061103f565b83811115611069576000848401525b50505050565b6000600282049050600182168061108757607f821691505b6020821081141561109b5761109a6110e6565b5b50919050565b6110aa82611144565b810181811067ffffffffffffffff821117156110c9576110c8611115565b5b80604052505050565b6000819050919050565b6000819050919050565b7f4e487b7100000000000000000000000000000000000000000000000000000000600052602260045260246000fd5b7f4e487b7100000000000000000000000000000000000000000000000000000000600052604160045260246000fd5b6000601f19601f8301169050919050565b7f596f752068617665206e6f74207061696420746865206d696e74696e6720636f60008201527f7374210000000000000000000000000000000000000000000000000000000000602082015250565b7f596f7520646f206e6f74206f776e207468652070757070792100000000000000600082015250565b7f54686973207075707079206973206e6f7420666f722073616c65210000000000600082015250565b7f596f7520617265206e6f7420746865206f776e6572206f66207468652070757060008201527f7069657321000000000000000000000000000000000000000000000000000000602082015250565b7f596f752068617665206e6f742070616964207468652073616c6520707269636560008201527f2100000000000000000000000000000000000000000000000000000000000000602082015250565b61129d81611023565b81146112a857600080fd5b5056fea26469706673582212201cd015674c0ede0e2af8c2d09a44038c19aee9732cfba9a8ee19e2f5503e2ae064736f6c63430008030033",
  "immutableReferences": {},
  "source": "// SPDX-License-Identifier: GLP-3.0\npragma solidity >=0.7.0 <0.9.0;\n\ncontract Cryptopuppy {\n    uint public mintingCost;\n\n    constructor(uint _mintingCost) {\n        mintingCost = _mintingCost;\n    }\n\n    struct Puppy {\n        string name;\n        address owner;\n        bytes32 dna;\n        uint salePrice;\n    }\n    \n    Puppy[] public puppies;\n\n    /* Mint a unique puppy.\n     */\n    function mint(string memory _name) public payable {\n        require(msg.value == mintingCost, \"You have not paid the minting cost!\");\n\n        Puppy memory p;\n        p.name = _name;\n        p.owner = msg.sender;\n        p.dna = keccak256(abi.encodePacked(_name, block.timestamp, puppies.length));\n\n        puppies.push(p);\n    }\n\n    function ownerOf(uint _puppyId) public view returns(address) {\n        return puppies[_puppyId].owner;\n    }\n\n    /* Breed two puppies, to create a unique one.\n     */\n    function breed(string memory _name, uint _parentId1, uint _parentId2) public {\n        require(msg.sender == ownerOf(_parentId1) && msg.sender == ownerOf(_parentId2), \"You are not the owner of the puppies!\");\n        Puppy memory p;\n        p.name = _name;\n        p.owner = msg.sender;\n        p.dna = keccak256(abi.encodePacked(puppies[_parentId1].dna, block.timestamp, puppies[_parentId2].dna, puppies.length));\n \n        puppies.push(p);\n    }\n\n    /* Sell a puppy.\n     */\n    function sell(uint _puppyId, uint _salePrice) public {\n        require(msg.sender == ownerOf(_puppyId),\"You do not own the puppy!\");\n        puppies[_puppyId].salePrice = _salePrice;\n    }\n\n    /* Buy a puppy.\n     */\n    function buy(uint _puppyId) public payable {\n        uint salePrice = puppies[_puppyId].salePrice;\n        require(salePrice > 0, \"This puppy is not for sale!\");\n        require(msg.value == salePrice, \"You have not paid the sale price!\");\n   \n        payable(puppies[_puppyId].owner).transfer(salePrice);\n        puppies[_puppyId].owner = msg.sender;\n    }\n\n    receive() external payable { }\n}",
  "sourcePath": "/home/mark/cryptopuppy/contracts/Cryptopuppy.sol",
  "compiler": {
    "name": "solc",
    "version": "0.8.3+commit.8d00100c.Emscripten.clang"
  },
  "schemaVersion": "3.3.4",
  "updatedAt": "2021-04-21T17:42:21.687Z",
  "networkType": "ethereum",
  "devdoc": {
    "kind": "dev",
    "methods": {},
    "version": 1
  },
  "userdoc": {
    "kind": "user",
    "methods": {},
    "version": 1
  }
}