{
  "contractName": "Cryptopuppy",
  "abi": [
    {
      "inputs": [
        {
          "internalType": "uint256",
          "name": "_mintingCost",
          "type": "uint256"
        }
      ],
      "stateMutability": "nonpayable",
      "type": "constructor"
    },
    {
      "anonymous": false,
      "inputs": [
        {
          "indexed": false,
          "internalType": "uint256",
          "name": "id",
          "type": "uint256"
        },
        {
          "indexed": false,
          "internalType": "uint256",
          "name": "parentId1",
          "type": "uint256"
        },
        {
          "indexed": false,
          "internalType": "uint256",
          "name": "parentiId2",
          "type": "uint256"
        }
      ],
      "name": "NewPuppy",
      "type": "event"
    },
    {
      "anonymous": false,
      "inputs": [
        {
          "indexed": false,
          "internalType": "uint256",
          "name": "id",
          "type": "uint256"
        },
        {
          "indexed": false,
          "internalType": "uint256",
          "name": "salePrice",
          "type": "uint256"
        },
        {
          "indexed": false,
          "internalType": "address",
          "name": "from",
          "type": "address"
        },
        {
          "indexed": false,
          "internalType": "address",
          "name": "to",
          "type": "address"
        }
      ],
      "name": "PuppyTransfer",
      "type": "event"
    },
    {
      "inputs": [],
      "name": "mintingCost",
      "outputs": [
        {
          "internalType": "uint256",
          "name": "",
          "type": "uint256"
        }
      ],
      "stateMutability": "view",
      "type": "function",
      "constant": true
    },
    {
      "inputs": [
        {
          "internalType": "uint256",
          "name": "",
          "type": "uint256"
        }
      ],
      "name": "puppies",
      "outputs": [
        {
          "internalType": "string",
          "name": "name",
          "type": "string"
        },
        {
          "internalType": "address",
          "name": "owner",
          "type": "address"
        },
        {
          "internalType": "bytes32",
          "name": "dna",
          "type": "bytes32"
        },
        {
          "internalType": "uint256",
          "name": "salePrice",
          "type": "uint256"
        }
      ],
      "stateMutability": "view",
      "type": "function",
      "constant": true
    },
    {
      "stateMutability": "payable",
      "type": "receive",
      "payable": true
    },
    {
      "inputs": [
        {
          "internalType": "string",
          "name": "_name",
          "type": "string"
        }
      ],
      "name": "mint",
      "outputs": [],
      "stateMutability": "payable",
      "type": "function",
      "payable": true
    },
    {
      "inputs": [
        {
          "internalType": "uint256",
          "name": "_puppyId",
          "type": "uint256"
        }
      ],
      "name": "ownerOf",
      "outputs": [
        {
          "internalType": "address",
          "name": "",
          "type": "address"
        }
      ],
      "stateMutability": "view",
      "type": "function",
      "constant": true
    },
    {
      "inputs": [
        {
          "internalType": "string",
          "name": "_name",
          "type": "string"
        },
        {
          "internalType": "uint256",
          "name": "_parentId1",
          "type": "uint256"
        },
        {
          "internalType": "uint256",
          "name": "_parentId2",
          "type": "uint256"
        }
      ],
      "name": "breed",
      "outputs": [],
      "stateMutability": "nonpayable",
      "type": "function"
    },
    {
      "inputs": [
        {
          "internalType": "uint256",
          "name": "_puppyId",
          "type": "uint256"
        },
        {
          "internalType": "uint256",
          "name": "_salePrice",
          "type": "uint256"
        }
      ],
      "name": "sell",
      "outputs": [],
      "stateMutability": "nonpayable",
      "type": "function"
    },
    {
      "inputs": [
        {
          "internalType": "uint256",
          "name": "_puppyId",
          "type": "uint256"
        }
      ],
      "name": "buy",
      "outputs": [],
      "stateMutability": "payable",
      "type": "function",
      "payable": true
    }
  ],
  "bytecode": "0x60806040523480156200001157600080fd5b50604051620015cc380380620015cc83398181016040528101906200003791906200005c565b8060008190555050620000ac565b600081519050620000568162000092565b92915050565b6000602082840312156200006f57600080fd5b60006200007f8482850162000045565b91505092915050565b6000819050919050565b6200009d8162000088565b8114620000a957600080fd5b50565b61151080620000bc6000396000f3fe6080604052600436106100745760003560e01c8063d79875eb1161004e578063d79875eb14610126578063d85d3d271461014f578063d96a094a1461016b578063ebf98abf146101875761007b565b80636352211e1461008057806399683c22146100bd578063aebf749c146100e65761007b565b3661007b57005b600080fd5b34801561008c57600080fd5b506100a760048036038101906100a29190610d38565b6101b2565b6040516100b49190610f98565b60405180910390f35b3480156100c957600080fd5b506100e460048036038101906100df9190610cd1565b610227565b005b3480156100f257600080fd5b5061010d60048036038101906101089190610d38565b6104a2565b60405161011d9493929190610fb3565b60405180910390f35b34801561013257600080fd5b5061014d60048036038101906101489190610d61565b61058a565b005b61016960048036038101906101649190610c90565b610654565b005b61018560048036038101906101809190610d38565b610815565b005b34801561019357600080fd5b5061019c610b29565b6040516101a9919061109f565b60405180910390f35b6000600182815481106101ee577f4e487b7100000000000000000000000000000000000000000000000000000000600052603260045260246000fd5b906000526020600020906004020160010160009054906101000a900473ffffffffffffffffffffffffffffffffffffffff169050919050565b610230826101b2565b73ffffffffffffffffffffffffffffffffffffffff163373ffffffffffffffffffffffffffffffffffffffff1614801561029d575061026e816101b2565b73ffffffffffffffffffffffffffffffffffffffff163373ffffffffffffffffffffffffffffffffffffffff16145b6102dc576040517f08c379a00000000000000000000000000000000000000000000000000000000081526004016102d39061105f565b60405180910390fd5b6102e4610b2f565b83816000018190525033816020019073ffffffffffffffffffffffffffffffffffffffff16908173ffffffffffffffffffffffffffffffffffffffff16815250506001838154811061035f577f4e487b7100000000000000000000000000000000000000000000000000000000600052603260045260246000fd5b90600052602060002090600402016002015442600184815481106103ac577f4e487b7100000000000000000000000000000000000000000000000000000000600052603260045260246000fd5b9060005260206000209060040201600201546001805490506040516020016103d79493929190610f11565b604051602081830303815290604052805190602001208160400181815250506001819080600181540180825580915050600190039060005260206000209060040201600090919091909150600082015181600001908051906020019061043e929190610b70565b5060208201518160010160006101000a81548173ffffffffffffffffffffffffffffffffffffffff021916908373ffffffffffffffffffffffffffffffffffffffff1602179055506040820151816002015560608201518160030155505050505050565b600181815481106104b257600080fd5b90600052602060002090600402016000915090508060000180546104d59061126f565b80601f01602080910402602001604051908101604052809291908181526020018280546105019061126f565b801561054e5780601f106105235761010080835404028352916020019161054e565b820191906000526020600020905b81548152906001019060200180831161053157829003601f168201915b5050505050908060010160009054906101000a900473ffffffffffffffffffffffffffffffffffffffff16908060020154908060030154905084565b610593826101b2565b73ffffffffffffffffffffffffffffffffffffffff163373ffffffffffffffffffffffffffffffffffffffff1614610600576040517f08c379a00000000000000000000000000000000000000000000000000000000081526004016105f79061103f565b60405180910390fd5b806001838154811061063b577f4e487b7100000000000000000000000000000000000000000000000000000000600052603260045260246000fd5b9060005260206000209060040201600301819055505050565b6000543414610698576040517f08c379a000000000000000000000000000000000000000000000000000000000815260040161068f90610fff565b60405180910390fd5b6106a0610b2f565b81816000018190525033816020019073ffffffffffffffffffffffffffffffffffffffff16908173ffffffffffffffffffffffffffffffffffffffff168152505081426001805490506040516020016106fb93929190610f5f565b6040516020818303038152906040528051906020012081604001818152505060018190806001815401808255809150506001900390600052602060002090600402016000909190919091506000820151816000019080519060200190610762929190610b70565b5060208201518160010160006101000a81548173ffffffffffffffffffffffffffffffffffffffff021916908373ffffffffffffffffffffffffffffffffffffffff160217905550604082015181600201556060820151816003015550506000600180805490506107d391906111b3565b90507f2637c162da5e023bbf476eb03d16f6c878d0498367f57228152501ac4253a47b818283604051610808939291906110ff565b60405180910390a1505050565b600060018281548110610851577f4e487b7100000000000000000000000000000000000000000000000000000000600052603260045260246000fd5b9060005260206000209060040201600301549050600081116108a8576040517f08c379a000000000000000000000000000000000000000000000000000000000815260040161089f9061101f565b60405180910390fd5b8034146108ea576040517f08c379a00000000000000000000000000000000000000000000000000000000081526004016108e19061107f565b60405180910390fd5b600060018381548110610926577f4e487b7100000000000000000000000000000000000000000000000000000000600052603260045260246000fd5b906000526020600020906004020160010160009054906101000a900473ffffffffffffffffffffffffffffffffffffffff16905060018381548110610994577f4e487b7100000000000000000000000000000000000000000000000000000000600052603260045260246000fd5b906000526020600020906004020160010160009054906101000a900473ffffffffffffffffffffffffffffffffffffffff1673ffffffffffffffffffffffffffffffffffffffff166108fc839081150290604051600060405180830381858888f19350505050158015610a0b573d6000803e3d6000fd5b503360018481548110610a47577f4e487b7100000000000000000000000000000000000000000000000000000000600052603260045260246000fd5b906000526020600020906004020160010160006101000a81548173ffffffffffffffffffffffffffffffffffffffff021916908373ffffffffffffffffffffffffffffffffffffffff160217905550600060018481548110610ad2577f4e487b7100000000000000000000000000000000000000000000000000000000600052603260045260246000fd5b9060005260206000209060040201600301819055507f1dec703a92e743b24679892256c502d4cc33d56818b75e6342fe10aa92f3ef6b83838333604051610b1c94939291906110ba565b60405180910390a1505050565b60005481565b604051806080016040528060608152602001600073ffffffffffffffffffffffffffffffffffffffff16815260200160008019168152602001600081525090565b828054610b7c9061126f565b90600052602060002090601f016020900481019282610b9e5760008555610be5565b82601f10610bb757805160ff1916838001178555610be5565b82800160010185558215610be5579182015b82811115610be4578251825591602001919060010190610bc9565b5b509050610bf29190610bf6565b5090565b5b80821115610c0f576000816000905550600101610bf7565b5090565b6000610c26610c218461115b565b611136565b905082815260208101848484011115610c3e57600080fd5b610c4984828561122d565b509392505050565b600082601f830112610c6257600080fd5b8135610c72848260208601610c13565b91505092915050565b600081359050610c8a816114c3565b92915050565b600060208284031215610ca257600080fd5b600082013567ffffffffffffffff811115610cbc57600080fd5b610cc884828501610c51565b91505092915050565b600080600060608486031215610ce657600080fd5b600084013567ffffffffffffffff811115610d0057600080fd5b610d0c86828701610c51565b9350506020610d1d86828701610c7b565b9250506040610d2e86828701610c7b565b9150509250925092565b600060208284031215610d4a57600080fd5b6000610d5884828501610c7b565b91505092915050565b60008060408385031215610d7457600080fd5b6000610d8285828601610c7b565b9250506020610d9385828601610c7b565b9150509250929050565b610da6816111e7565b82525050565b610db5816111f9565b82525050565b610dcc610dc7826111f9565b6112d2565b82525050565b6000610ddd8261118c565b610de78185611197565b9350610df781856020860161123c565b610e0081611373565b840191505092915050565b6000610e168261118c565b610e2081856111a8565b9350610e3081856020860161123c565b80840191505092915050565b6000610e49602383611197565b9150610e5482611384565b604082019050919050565b6000610e6c601b83611197565b9150610e77826113d3565b602082019050919050565b6000610e8f601a83611197565b9150610e9a826113fc565b602082019050919050565b6000610eb2602583611197565b9150610ebd82611425565b604082019050919050565b6000610ed5602183611197565b9150610ee082611474565b604082019050919050565b610ef481611223565b82525050565b610f0b610f0682611223565b6112dc565b82525050565b6000610f1d8287610dbb565b602082019150610f2d8286610efa565b602082019150610f3d8285610dbb565b602082019150610f4d8284610efa565b60208201915081905095945050505050565b6000610f6b8286610e0b565b9150610f778285610efa565b602082019150610f878284610efa565b602082019150819050949350505050565b6000602082019050610fad6000830184610d9d565b92915050565b60006080820190508181036000830152610fcd8187610dd2565b9050610fdc6020830186610d9d565b610fe96040830185610dac565b610ff66060830184610eeb565b95945050505050565b6000602082019050818103600083015261101881610e3c565b9050919050565b6000602082019050818103600083015261103881610e5f565b9050919050565b6000602082019050818103600083015261105881610e82565b9050919050565b6000602082019050818103600083015261107881610ea5565b9050919050565b6000602082019050818103600083015261109881610ec8565b9050919050565b60006020820190506110b46000830184610eeb565b92915050565b60006080820190506110cf6000830187610eeb565b6110dc6020830186610eeb565b6110e96040830185610d9d565b6110f66060830184610d9d565b95945050505050565b60006060820190506111146000830186610eeb565b6111216020830185610eeb565b61112e6040830184610eeb565b949350505050565b6000611140611151565b905061114c82826112a1565b919050565b6000604051905090565b600067ffffffffffffffff82111561117657611175611344565b5b61117f82611373565b9050602081019050919050565b600081519050919050565b600082825260208201905092915050565b600081905092915050565b60006111be82611223565b91506111c983611223565b9250828210156111dc576111db6112e6565b5b828203905092915050565b60006111f282611203565b9050919050565b6000819050919050565b600073ffffffffffffffffffffffffffffffffffffffff82169050919050565b6000819050919050565b82818337600083830152505050565b60005b8381101561125a57808201518184015260208101905061123f565b83811115611269576000848401525b50505050565b6000600282049050600182168061128757607f821691505b6020821081141561129b5761129a611315565b5b50919050565b6112aa82611373565b810181811067ffffffffffffffff821117156112c9576112c8611344565b5b80604052505050565b6000819050919050565b6000819050919050565b7f4e487b7100000000000000000000000000000000000000000000000000000000600052601160045260246000fd5b7f4e487b7100000000000000000000000000000000000000000000000000000000600052602260045260246000fd5b7f4e487b7100000000000000000000000000000000000000000000000000000000600052604160045260246000fd5b6000601f19601f8301169050919050565b7f596f752068617665206e6f74207061696420746865206d696e74696e6720636f60008201527f7374210000000000000000000000000000000000000000000000000000000000602082015250565b7f54686973207075707079206973206e6f7420666f722073616c65210000000000600082015250565b7f20596f7520646f206e6f74206f776e2074686520707570707921000000000000600082015250565b7f596f7520617265206e6f7420746865206f776e6572206f66207468652070757060008201527f7069657321000000000000000000000000000000000000000000000000000000602082015250565b7f596f752068617665206e6f742070616964207468652073616c6520707269636560008201527f2100000000000000000000000000000000000000000000000000000000000000602082015250565b6114cc81611223565b81146114d757600080fd5b5056fea2646970667358221220a984b6a89c9d0c55d1da591d74204d73efe7d11038ed99e46ee1a22a4f3ed41f64736f6c63430008030033",
  "immutableReferences": {},
  "source": "// SPDX-License-Identifier: GLP-3.0\npragma solidity >=0.7.0 <0.9.0;\n\ncontract Cryptopuppy {\n    uint public mintingCost;\n\n    constructor(uint _mintingCost) {\n        mintingCost = _mintingCost;\n    }\n\n    struct Puppy {\n        string name;\n        address owner;\n        bytes32 dna;\n        uint salePrice;\n    }\n    \n    Puppy[] public puppies;\n\n    event NewPuppy(uint id, uint parentId1, uint parentiId2);\n    event PuppyTransfer(uint id, uint  salePrice, address from, address to);\n\n    /* Mint a unique puppy.\n     */\n    function mint(string memory _name) public payable {\n        require(msg.value == mintingCost, \"You have not paid the minting cost!\");\n\n        Puppy memory p;\n        p.name = _name;\n        p.owner = msg.sender;\n        p.dna = keccak256(abi.encodePacked(_name, block.timestamp, puppies.length));\n\n        puppies.push(p);\n\n        uint id = puppies.length -1;\n        emit NewPuppy(id, id, id);\n    }\n\n    function ownerOf(uint _puppyId) public view returns(address) {\n        return puppies[_puppyId].owner;\n    }\n\n    /* Breed two puppies, to create a unique one.\n     */\n    function breed(string memory _name, uint _parentId1, uint _parentId2) public {\n        require(msg.sender == ownerOf(_parentId1) && msg.sender == ownerOf(_parentId2), \"You are not the owner of the puppies!\");\n        Puppy memory p;\n        p.name = _name;\n        p.owner = msg.sender;\n        p.dna = keccak256(abi.encodePacked(puppies[_parentId1].dna, block.timestamp, puppies[_parentId2].dna, puppies.length));\n \n        puppies.push(p);\n    }\n\n    /* Sell a puppy.\n     */\n    function sell(uint _puppyId, uint _salePrice) public {\n        require(msg.sender == ownerOf(_puppyId),\" You do not own the puppy!\");\n        puppies[_puppyId].salePrice = _salePrice;\n    }\n\n    /* Buy a puppy.\n     */\n    function buy(uint _puppyId) public payable {\n        uint salePrice = puppies[_puppyId].salePrice;\n        require(salePrice > 0, \"This puppy is not for sale!\");\n        require(msg.value == salePrice, \"You have not paid the sale price!\");\n        address oldOwner = puppies[_puppyId].owner;\n        payable(puppies[_puppyId].owner).transfer(salePrice);\n        puppies[_puppyId].owner = msg.sender;\n        puppies[_puppyId].salePrice = 0;\n\n        emit PuppyTransfer(_puppyId, salePrice, oldOwner, msg.sender);\n    }\n\n    receive() external payable { }\n}\n",
  "sourcePath": "/home/mark/cryptopuppy-app/contracts/Cryptopuppy.sol",
  "compiler": {
    "name": "solc",
    "version": "0.8.3+commit.8d00100c.Emscripten.clang"
  },
  "schemaVersion": "3.4.0",
  "updatedAt": "2021-06-10T20:46:18.996Z",
  "networkType": "ethereum",
  "devdoc": {
    "kind": "dev",
    "methods": {},
    "version": 1
  },
  "userdoc": {
    "kind": "user",
    "methods": {},
    "version": 1
  }
}