{
  "contractName": "TokenSale",
  "abi": [
    {
      "inputs": [
        {
          "internalType": "contract Token",
          "name": "_tokenContract",
          "type": "address"
        },
        {
          "internalType": "uint256",
          "name": "_tokenPrice",
          "type": "uint256"
        }
      ],
      "stateMutability": "nonpayable",
      "type": "constructor"
    },
    {
      "anonymous": false,
      "inputs": [
        {
          "indexed": false,
          "internalType": "address",
          "name": "_buyer",
          "type": "address"
        },
        {
          "indexed": false,
          "internalType": "uint256",
          "name": "_amount",
          "type": "uint256"
        }
      ],
      "name": "Sell",
      "type": "event"
    },
    {
      "inputs": [],
      "name": "tokenContract",
      "outputs": [
        {
          "internalType": "contract Token",
          "name": "",
          "type": "address"
        }
      ],
      "stateMutability": "view",
      "type": "function",
      "constant": true
    },
    {
      "inputs": [],
      "name": "tokenPrice",
      "outputs": [
        {
          "internalType": "uint256",
          "name": "",
          "type": "uint256"
        }
      ],
      "stateMutability": "view",
      "type": "function",
      "constant": true
    },
    {
      "inputs": [],
      "name": "tokensSold",
      "outputs": [
        {
          "internalType": "uint256",
          "name": "",
          "type": "uint256"
        }
      ],
      "stateMutability": "view",
      "type": "function",
      "constant": true
    },
    {
      "inputs": [
        {
          "internalType": "uint256",
          "name": "_numberOfTokens",
          "type": "uint256"
        }
      ],
      "name": "buyTokens",
      "outputs": [],
      "stateMutability": "payable",
      "type": "function",
      "payable": true
    }
  ],
  "bytecode": "0x608060405234801561001057600080fd5b5060405161050e38038061050e8339818101604052604081101561003357600080fd5b810190808051906020019092919080519060200190929190505050336000806101000a81548173ffffffffffffffffffffffffffffffffffffffff021916908373ffffffffffffffffffffffffffffffffffffffff16021790555081600160006101000a81548173ffffffffffffffffffffffffffffffffffffffff021916908373ffffffffffffffffffffffffffffffffffffffff160217905550806002819055505050610427806100e76000396000f3fe60806040526004361061003f5760003560e01c80633610724e14610044578063518ab2a81461007257806355a373d61461009d5780637ff9b596146100f4575b600080fd5b6100706004803603602081101561005a57600080fd5b810190808035906020019092919050505061011f565b005b34801561007e57600080fd5b5061008761038b565b6040518082815260200191505060405180910390f35b3480156100a957600080fd5b506100b2610391565b604051808273ffffffffffffffffffffffffffffffffffffffff1673ffffffffffffffffffffffffffffffffffffffff16815260200191505060405180910390f35b34801561010057600080fd5b506101096103b7565b6040518082815260200191505060405180910390f35b61012b816002546103bd565b341461013657600080fd5b6002548102600160009054906101000a900473ffffffffffffffffffffffffffffffffffffffff1673ffffffffffffffffffffffffffffffffffffffff166370a08231306040518263ffffffff1660e01b8152600401808273ffffffffffffffffffffffffffffffffffffffff1673ffffffffffffffffffffffffffffffffffffffff16815260200191505060206040518083038186803b1580156101da57600080fd5b505afa1580156101ee573d6000803e3d6000fd5b505050506040513d602081101561020457600080fd5b8101908080519060200190929190505050101561022057600080fd5b600160009054906101000a900473ffffffffffffffffffffffffffffffffffffffff1673ffffffffffffffffffffffffffffffffffffffff1663a9059cbb33836040518363ffffffff1660e01b8152600401808373ffffffffffffffffffffffffffffffffffffffff1673ffffffffffffffffffffffffffffffffffffffff16815260200182815260200192505050602060405180830381600087803b1580156102c957600080fd5b505af11580156102dd573d6000803e3d6000fd5b505050506040513d60208110156102f357600080fd5b810190808051906020019092919050505061030d57600080fd5b806003600082825401925050819055507f5e5e995ce3133561afceaa51a9a154d5db228cd7525d34df5185582c18d3df093382604051808373ffffffffffffffffffffffffffffffffffffffff1673ffffffffffffffffffffffffffffffffffffffff1681526020018281526020019250505060405180910390a150565b60035481565b600160009054906101000a900473ffffffffffffffffffffffffffffffffffffffff1681565b60025481565b6000808314156103d057600090506103eb565b8183029050818382816103df57fe5b04146103e757fe5b8090505b9291505056fea26469706673582212201c751e5fa1bd0e220535c7a85f67c4e93cb861263f8b06bce632e84e84327d2464736f6c63430006000033",
  "source": "pragma solidity ^0.6.0;\n\nimport \"./Token.sol\";\n\ncontract TokenSale{\n\taddress admin;\n\tToken public tokenContract;\n\tuint256 public tokenPrice;\n\tuint256 public tokensSold;\n\n\tevent Sell(address _buyer, uint256 _amount);\n\n\tconstructor(Token _tokenContract, uint256 _tokenPrice) public{\n\t\tadmin = msg.sender;\n\t\ttokenContract = _tokenContract;\n\t\ttokenPrice = _tokenPrice;\n\t}\n\n\tfunction multiply(uint256 a, uint256 b) internal pure returns (uint256 c) {\n\t    if (a == 0) {\n\t      return 0;\n\t    }\n\t    c = a * b;\n\t    assert(c / a == b);\n\t    return c;\n    }\n\n\tfunction buyTokens(uint256 _numberOfTokens) public payable {\n\n\t\trequire(msg.value == multiply(_numberOfTokens, tokenPrice));\n\t\trequire(tokenContract.balanceOf(address(this)) >= _numberOfTokens * tokenPrice);\n\t\t// Buy functionality\n\t\trequire(tokenContract.transfer(msg.sender, _numberOfTokens));\n\t\ttokensSold += _numberOfTokens;\n\t\temit Sell(msg.sender, _numberOfTokens);\n\t}\n}      ",
  "sourcePath": "/home/mark/cryptoken/contracts/TokenSale.sol",
  "compiler": {
    "name": "solc",
    "version": "0.6.0+commit.26b70077.Emscripten.clang"
  },
  "schemaVersion": "3.4.0",
  "updatedAt": "2021-07-24T15:37:36.849Z",
  "networkType": "ethereum",
  "devdoc": {
    "methods": {}
  },
  "userdoc": {
    "methods": {}
  }
}